{
	"Variables.sol": {
		"MyContract": {
			"abi": [
				{
					"inputs": [],
					"name": "getValue",
					"outputs": [
						{
							"internalType": "uint256",
							"name": "",
							"type": "uint256"
						}
					],
					"stateMutability": "pure",
					"type": "function"
				},
				{
					"inputs": [],
					"name": "myAddress",
					"outputs": [
						{
							"internalType": "address",
							"name": "",
							"type": "address"
						}
					],
					"stateMutability": "view",
					"type": "function"
				},
				{
					"inputs": [],
					"name": "myByte32",
					"outputs": [
						{
							"internalType": "bytes32",
							"name": "",
							"type": "bytes32"
						}
					],
					"stateMutability": "view",
					"type": "function"
				},
				{
					"inputs": [],
					"name": "myString",
					"outputs": [
						{
							"internalType": "string",
							"name": "",
							"type": "string"
						}
					],
					"stateMutability": "view",
					"type": "function"
				},
				{
					"inputs": [],
					"name": "myUnit",
					"outputs": [
						{
							"internalType": "uint256",
							"name": "",
							"type": "uint256"
						}
					],
					"stateMutability": "view",
					"type": "function"
				},
				{
					"inputs": [],
					"name": "myUnit256",
					"outputs": [
						{
							"internalType": "uint256",
							"name": "",
							"type": "uint256"
						}
					],
					"stateMutability": "view",
					"type": "function"
				},
				{
					"inputs": [],
					"name": "myUnit8",
					"outputs": [
						{
							"internalType": "uint8",
							"name": "",
							"type": "uint8"
						}
					],
					"stateMutability": "view",
					"type": "function"
				},
				{
					"inputs": [],
					"name": "mystruct",
					"outputs": [
						{
							"internalType": "int256",
							"name": "a",
							"type": "int256"
						},
						{
							"internalType": "string",
							"name": "s",
							"type": "string"
						}
					],
					"stateMutability": "view",
					"type": "function"
				}
			],
			"devdoc": {
				"kind": "dev",
				"methods": {},
				"version": 1
			},
			"evm": {
				"assembly": "    /* \"Variables.sol\":62:1031  contract MyContract{ ... */\n  mstore(0x40, 0x80)\n    /* \"Variables.sol\":134:135  1 */\n  0x01\n    /* \"Variables.sol\":113:135  uint public myUnit = 1 */\n  0x00\n  sstore\n    /* \"Variables.sol\":348:349  1 */\n  0x01\n    /* \"Variables.sol\":322:349  uint256 public myUnit256 =1 */\n  dup1\n  sstore\n    /* \"Variables.sol\":427:428  1 */\n  0x01\n    /* \"Variables.sol\":405:428  uint8 public myUnit8 =1 */\n  0x02\n  exp(0x0100, 0x00)\n  dup2\n  sload\n  dup2\n  0xff\n  mul\n  not\n  and\n  swap1\n  dup4\n  0xff\n  and\n  mul\n  or\n  swap1\n  sstore\n  pop\n    /* \"Variables.sol\":483:525  0x71C7656EC7ab88b098defB751B7401B5f6d8976F */\n  0x71c7656ec7ab88b098defb751b7401b5f6d8976f\n    /* \"Variables.sol\":456:525  address public myAddress = 0x71C7656EC7ab88b098defB751B7401B5f6d8976F */\n  0x02\n  exp(0x0100, 0x01)\n  dup2\n  sload\n  dup2\n  0xffffffffffffffffffffffffffffffffffffffff\n  mul\n  not\n  and\n  swap1\n  dup4\n  0xffffffffffffffffffffffffffffffffffffffff\n  and\n  mul\n  or\n  swap1\n  sstore\n  pop\n    /* \"Variables.sol\":547:548  1 */\n  0x01\n    /* \"Variables.sol\":534:548  int256 myInt=1 */\n  0x03\n  sstore\n    /* \"Variables.sol\":606:645  bytes32 public myByte32 = \"Hello World\" */\n  sstore(0x04, 0x48656c6c6f20576f726c64000000000000000000000000000000000000000000)\n    /* \"Variables.sol\":669:718  string public myString= \"my cat looks like a dog\" */\n  mload(0x40)\n  dup1\n  0x40\n  add\n  0x40\n  mstore\n  dup1\n  0x17\n  dup2\n  mstore\n  0x20\n  add\n  0x6d7920636174206c6f6f6b73206c696b65206120646f67000000000000000000\n  dup2\n  mstore\n  pop\n  0x05\n  swap1\n  dup2\n  tag_1\n  swap2\n  swap1\n  tag_2\n  jump\t// in\ntag_1:\n  pop\n    /* \"Variables.sol\":821:847  Mystruct(1,\"ThisIsString\") */\n  mload(0x40)\n  dup1\n  0x40\n  add\n  0x40\n  mstore\n  dup1\n    /* \"Variables.sol\":830:831  1 */\n  0x01\n    /* \"Variables.sol\":821:847  Mystruct(1,\"ThisIsString\") */\n  dup2\n  mstore\n  0x20\n  add\n  mload(0x40)\n  dup1\n  0x40\n  add\n  0x40\n  mstore\n  dup1\n  0x0c\n  dup2\n  mstore\n  0x20\n  add\n  0x546869734973537472696e670000000000000000000000000000000000000000\n  dup2\n  mstore\n  pop\n  dup2\n  mstore\n  pop\n    /* \"Variables.sol\":794:847  Mystruct public mystruct = Mystruct(1,\"ThisIsString\") */\n  0x06\n  0x00\n  dup3\n  add\n  mload\n  dup2\n  0x00\n  add\n  sstore\n  0x20\n  dup3\n  add\n  mload\n  dup2\n  0x01\n  add\n  swap1\n  dup2\n  tag_3\n  swap2\n  swap1\n  tag_2\n  jump\t// in\ntag_3:\n  pop\n  pop\n  pop\n    /* \"Variables.sol\":62:1031  contract MyContract{ ... */\n  callvalue\n  dup1\n  iszero\n  tag_4\n  jumpi\n  0x00\n  dup1\n  revert\ntag_4:\n  pop\n  jump(tag_5)\n    /* \"#utility.yul\":7:106   */\ntag_6:\n    /* \"#utility.yul\":59:65   */\n  0x00\n    /* \"#utility.yul\":93:98   */\n  dup2\n    /* \"#utility.yul\":87:99   */\n  mload\n    /* \"#utility.yul\":77:99   */\n  swap1\n  pop\n    /* \"#utility.yul\":7:106   */\n  swap2\n  swap1\n  pop\n  jump\t// out\n    /* \"#utility.yul\":112:292   */\ntag_7:\n    /* \"#utility.yul\":160:237   */\n  0x4e487b7100000000000000000000000000000000000000000000000000000000\n    /* \"#utility.yul\":157:158   */\n  0x00\n    /* \"#utility.yul\":150:238   */\n  mstore\n    /* \"#utility.yul\":257:261   */\n  0x41\n    /* \"#utility.yul\":254:255   */\n  0x04\n    /* \"#utility.yul\":247:262   */\n  mstore\n    /* \"#utility.yul\":281:285   */\n  0x24\n    /* \"#utility.yul\":278:279   */\n  0x00\n    /* \"#utility.yul\":271:286   */\n  revert\n    /* \"#utility.yul\":298:478   */\ntag_8:\n    /* \"#utility.yul\":346:423   */\n  0x4e487b7100000000000000000000000000000000000000000000000000000000\n    /* \"#utility.yul\":343:344   */\n  0x00\n    /* \"#utility.yul\":336:424   */\n  mstore\n    /* \"#utility.yul\":443:447   */\n  0x22\n    /* \"#utility.yul\":440:441   */\n  0x04\n    /* \"#utility.yul\":433:448   */\n  mstore\n    /* \"#utility.yul\":467:471   */\n  0x24\n    /* \"#utility.yul\":464:465   */\n  0x00\n    /* \"#utility.yul\":457:472   */\n  revert\n    /* \"#utility.yul\":484:804   */\ntag_9:\n    /* \"#utility.yul\":528:534   */\n  0x00\n    /* \"#utility.yul\":565:566   */\n  0x02\n    /* \"#utility.yul\":559:563   */\n  dup3\n    /* \"#utility.yul\":555:567   */\n  div\n    /* \"#utility.yul\":545:567   */\n  swap1\n  pop\n    /* \"#utility.yul\":612:613   */\n  0x01\n    /* \"#utility.yul\":606:610   */\n  dup3\n    /* \"#utility.yul\":602:614   */\n  and\n    /* \"#utility.yul\":633:651   */\n  dup1\n    /* \"#utility.yul\":623:704   */\n  tag_31\n  jumpi\n    /* \"#utility.yul\":689:693   */\n  0x7f\n    /* \"#utility.yul\":681:687   */\n  dup3\n    /* \"#utility.yul\":677:694   */\n  and\n    /* \"#utility.yul\":667:694   */\n  swap2\n  pop\n    /* \"#utility.yul\":623:704   */\ntag_31:\n    /* \"#utility.yul\":751:753   */\n  0x20\n    /* \"#utility.yul\":743:749   */\n  dup3\n    /* \"#utility.yul\":740:754   */\n  lt\n    /* \"#utility.yul\":720:738   */\n  dup2\n    /* \"#utility.yul\":717:755   */\n  sub\n    /* \"#utility.yul\":714:798   */\n  tag_32\n  jumpi\n    /* \"#utility.yul\":770:788   */\n  tag_33\n  tag_8\n  jump\t// in\ntag_33:\n    /* \"#utility.yul\":714:798   */\ntag_32:\n    /* \"#utility.yul\":535:804   */\n  pop\n    /* \"#utility.yul\":484:804   */\n  swap2\n  swap1\n  pop\n  jump\t// out\n    /* \"#utility.yul\":810:951   */\ntag_10:\n    /* \"#utility.yul\":859:863   */\n  0x00\n    /* \"#utility.yul\":882:885   */\n  dup2\n    /* \"#utility.yul\":874:885   */\n  swap1\n  pop\n    /* \"#utility.yul\":905:908   */\n  dup2\n    /* \"#utility.yul\":902:903   */\n  0x00\n    /* \"#utility.yul\":895:909   */\n  mstore\n    /* \"#utility.yul\":939:943   */\n  0x20\n    /* \"#utility.yul\":936:937   */\n  0x00\n    /* \"#utility.yul\":926:944   */\n  keccak256\n    /* \"#utility.yul\":918:944   */\n  swap1\n  pop\n    /* \"#utility.yul\":810:951   */\n  swap2\n  swap1\n  pop\n  jump\t// out\n    /* \"#utility.yul\":957:1050   */\ntag_11:\n    /* \"#utility.yul\":994:1000   */\n  0x00\n    /* \"#utility.yul\":1041:1043   */\n  0x20\n    /* \"#utility.yul\":1036:1038   */\n  0x1f\n    /* \"#utility.yul\":1029:1034   */\n  dup4\n    /* \"#utility.yul\":1025:1039   */\n  add\n    /* \"#utility.yul\":1021:1044   */\n  div\n    /* \"#utility.yul\":1011:1044   */\n  swap1\n  pop\n    /* \"#utility.yul\":957:1050   */\n  swap2\n  swap1\n  pop\n  jump\t// out\n    /* \"#utility.yul\":1056:1163   */\ntag_12:\n    /* \"#utility.yul\":1100:1108   */\n  0x00\n    /* \"#utility.yul\":1150:1155   */\n  dup3\n    /* \"#utility.yul\":1144:1148   */\n  dup3\n    /* \"#utility.yul\":1140:1156   */\n  shl\n    /* \"#utility.yul\":1119:1156   */\n  swap1\n  pop\n    /* \"#utility.yul\":1056:1163   */\n  swap3\n  swap2\n  pop\n  pop\n  jump\t// out\n    /* \"#utility.yul\":1169:1562   */\ntag_13:\n    /* \"#utility.yul\":1238:1244   */\n  0x00\n    /* \"#utility.yul\":1288:1289   */\n  0x08\n    /* \"#utility.yul\":1276:1286   */\n  dup4\n    /* \"#utility.yul\":1272:1290   */\n  mul\n    /* \"#utility.yul\":1311:1408   */\n  tag_38\n    /* \"#utility.yul\":1341:1407   */\n  0xffffffffffffffffffffffffffffffffffffffffffffffffffffffffffffffff\n    /* \"#utility.yul\":1330:1339   */\n  dup3\n    /* \"#utility.yul\":1311:1408   */\n  tag_12\n  jump\t// in\ntag_38:\n    /* \"#utility.yul\":1429:1468   */\n  tag_39\n    /* \"#utility.yul\":1459:1467   */\n  dup7\n    /* \"#utility.yul\":1448:1457   */\n  dup4\n    /* \"#utility.yul\":1429:1468   */\n  tag_12\n  jump\t// in\ntag_39:\n    /* \"#utility.yul\":1417:1468   */\n  swap6\n  pop\n    /* \"#utility.yul\":1501:1505   */\n  dup1\n    /* \"#utility.yul\":1497:1506   */\n  not\n    /* \"#utility.yul\":1490:1495   */\n  dup5\n    /* \"#utility.yul\":1486:1507   */\n  and\n    /* \"#utility.yul\":1477:1507   */\n  swap4\n  pop\n    /* \"#utility.yul\":1550:1554   */\n  dup1\n    /* \"#utility.yul\":1540:1548   */\n  dup7\n    /* \"#utility.yul\":1536:1555   */\n  and\n    /* \"#utility.yul\":1529:1534   */\n  dup5\n    /* \"#utility.yul\":1526:1556   */\n  or\n    /* \"#utility.yul\":1516:1556   */\n  swap3\n  pop\n    /* \"#utility.yul\":1245:1562   */\n  pop\n  pop\n    /* \"#utility.yul\":1169:1562   */\n  swap4\n  swap3\n  pop\n  pop\n  pop\n  jump\t// out\n    /* \"#utility.yul\":1568:1645   */\ntag_14:\n    /* \"#utility.yul\":1605:1612   */\n  0x00\n    /* \"#utility.yul\":1634:1639   */\n  dup2\n    /* \"#utility.yul\":1623:1639   */\n  swap1\n  pop\n    /* \"#utility.yul\":1568:1645   */\n  swap2\n  swap1\n  pop\n  jump\t// out\n    /* \"#utility.yul\":1651:1711   */\ntag_15:\n    /* \"#utility.yul\":1679:1682   */\n  0x00\n    /* \"#utility.yul\":1700:1705   */\n  dup2\n    /* \"#utility.yul\":1693:1705   */\n  swap1\n  pop\n    /* \"#utility.yul\":1651:1711   */\n  swap2\n  swap1\n  pop\n  jump\t// out\n    /* \"#utility.yul\":1717:1859   */\ntag_16:\n    /* \"#utility.yul\":1767:1776   */\n  0x00\n    /* \"#utility.yul\":1800:1853   */\n  tag_43\n    /* \"#utility.yul\":1818:1852   */\n  tag_44\n    /* \"#utility.yul\":1827:1851   */\n  tag_45\n    /* \"#utility.yul\":1845:1850   */\n  dup5\n    /* \"#utility.yul\":1827:1851   */\n  tag_14\n  jump\t// in\ntag_45:\n    /* \"#utility.yul\":1818:1852   */\n  tag_15\n  jump\t// in\ntag_44:\n    /* \"#utility.yul\":1800:1853   */\n  tag_14\n  jump\t// in\ntag_43:\n    /* \"#utility.yul\":1787:1853   */\n  swap1\n  pop\n    /* \"#utility.yul\":1717:1859   */\n  swap2\n  swap1\n  pop\n  jump\t// out\n    /* \"#utility.yul\":1865:1940   */\ntag_17:\n    /* \"#utility.yul\":1908:1911   */\n  0x00\n    /* \"#utility.yul\":1929:1934   */\n  dup2\n    /* \"#utility.yul\":1922:1934   */\n  swap1\n  pop\n    /* \"#utility.yul\":1865:1940   */\n  swap2\n  swap1\n  pop\n  jump\t// out\n    /* \"#utility.yul\":1946:2215   */\ntag_18:\n    /* \"#utility.yul\":2056:2095   */\n  tag_48\n    /* \"#utility.yul\":2087:2094   */\n  dup4\n    /* \"#utility.yul\":2056:2095   */\n  tag_16\n  jump\t// in\ntag_48:\n    /* \"#utility.yul\":2117:2208   */\n  tag_49\n    /* \"#utility.yul\":2166:2207   */\n  tag_50\n    /* \"#utility.yul\":2190:2206   */\n  dup3\n    /* \"#utility.yul\":2166:2207   */\n  tag_17\n  jump\t// in\ntag_50:\n    /* \"#utility.yul\":2158:2164   */\n  dup5\n    /* \"#utility.yul\":2151:2155   */\n  dup5\n    /* \"#utility.yul\":2145:2156   */\n  sload\n    /* \"#utility.yul\":2117:2208   */\n  tag_13\n  jump\t// in\ntag_49:\n    /* \"#utility.yul\":2111:2115   */\n  dup3\n    /* \"#utility.yul\":2104:2209   */\n  sstore\n    /* \"#utility.yul\":2022:2215   */\n  pop\n    /* \"#utility.yul\":1946:2215   */\n  pop\n  pop\n  pop\n  jump\t// out\n    /* \"#utility.yul\":2221:2294   */\ntag_19:\n    /* \"#utility.yul\":2266:2269   */\n  0x00\n    /* \"#utility.yul\":2221:2294   */\n  swap1\n  jump\t// out\n    /* \"#utility.yul\":2300:2489   */\ntag_20:\n    /* \"#utility.yul\":2377:2409   */\n  tag_53\n  tag_19\n  jump\t// in\ntag_53:\n    /* \"#utility.yul\":2418:2483   */\n  tag_54\n    /* \"#utility.yul\":2476:2482   */\n  dup2\n    /* \"#utility.yul\":2468:2474   */\n  dup5\n    /* \"#utility.yul\":2462:2466   */\n  dup5\n    /* \"#utility.yul\":2418:2483   */\n  tag_18\n  jump\t// in\ntag_54:\n    /* \"#utility.yul\":2353:2489   */\n  pop\n    /* \"#utility.yul\":2300:2489   */\n  pop\n  pop\n  jump\t// out\n    /* \"#utility.yul\":2495:2681   */\ntag_21:\n    /* \"#utility.yul\":2555:2675   */\ntag_56:\n    /* \"#utility.yul\":2572:2575   */\n  dup2\n    /* \"#utility.yul\":2565:2570   */\n  dup2\n    /* \"#utility.yul\":2562:2576   */\n  lt\n    /* \"#utility.yul\":2555:2675   */\n  iszero\n  tag_58\n  jumpi\n    /* \"#utility.yul\":2626:2665   */\n  tag_59\n    /* \"#utility.yul\":2663:2664   */\n  0x00\n    /* \"#utility.yul\":2656:2661   */\n  dup3\n    /* \"#utility.yul\":2626:2665   */\n  tag_20\n  jump\t// in\ntag_59:\n    /* \"#utility.yul\":2599:2600   */\n  0x01\n    /* \"#utility.yul\":2592:2597   */\n  dup2\n    /* \"#utility.yul\":2588:2601   */\n  add\n    /* \"#utility.yul\":2579:2601   */\n  swap1\n  pop\n    /* \"#utility.yul\":2555:2675   */\n  jump(tag_56)\ntag_58:\n    /* \"#utility.yul\":2495:2681   */\n  pop\n  pop\n  jump\t// out\n    /* \"#utility.yul\":2687:3230   */\ntag_22:\n    /* \"#utility.yul\":2788:2790   */\n  0x1f\n    /* \"#utility.yul\":2783:2786   */\n  dup3\n    /* \"#utility.yul\":2780:2791   */\n  gt\n    /* \"#utility.yul\":2777:3223   */\n  iszero\n  tag_61\n  jumpi\n    /* \"#utility.yul\":2822:2860   */\n  tag_62\n    /* \"#utility.yul\":2854:2859   */\n  dup2\n    /* \"#utility.yul\":2822:2860   */\n  tag_10\n  jump\t// in\ntag_62:\n    /* \"#utility.yul\":2906:2935   */\n  tag_63\n    /* \"#utility.yul\":2924:2934   */\n  dup5\n    /* \"#utility.yul\":2906:2935   */\n  tag_11\n  jump\t// in\ntag_63:\n    /* \"#utility.yul\":2896:2904   */\n  dup2\n    /* \"#utility.yul\":2892:2936   */\n  add\n    /* \"#utility.yul\":3089:3091   */\n  0x20\n    /* \"#utility.yul\":3077:3087   */\n  dup6\n    /* \"#utility.yul\":3074:3092   */\n  lt\n    /* \"#utility.yul\":3071:3120   */\n  iszero\n  tag_64\n  jumpi\n    /* \"#utility.yul\":3110:3118   */\n  dup2\n    /* \"#utility.yul\":3095:3118   */\n  swap1\n  pop\n    /* \"#utility.yul\":3071:3120   */\ntag_64:\n    /* \"#utility.yul\":3133:3213   */\n  tag_65\n    /* \"#utility.yul\":3189:3211   */\n  tag_66\n    /* \"#utility.yul\":3207:3210   */\n  dup6\n    /* \"#utility.yul\":3189:3211   */\n  tag_11\n  jump\t// in\ntag_66:\n    /* \"#utility.yul\":3179:3187   */\n  dup4\n    /* \"#utility.yul\":3175:3212   */\n  add\n    /* \"#utility.yul\":3162:3173   */\n  dup3\n    /* \"#utility.yul\":3133:3213   */\n  tag_21\n  jump\t// in\ntag_65:\n    /* \"#utility.yul\":2792:3223   */\n  pop\n  pop\n    /* \"#utility.yul\":2777:3223   */\ntag_61:\n    /* \"#utility.yul\":2687:3230   */\n  pop\n  pop\n  pop\n  jump\t// out\n    /* \"#utility.yul\":3236:3353   */\ntag_23:\n    /* \"#utility.yul\":3290:3298   */\n  0x00\n    /* \"#utility.yul\":3340:3345   */\n  dup3\n    /* \"#utility.yul\":3334:3338   */\n  dup3\n    /* \"#utility.yul\":3330:3346   */\n  shr\n    /* \"#utility.yul\":3309:3346   */\n  swap1\n  pop\n    /* \"#utility.yul\":3236:3353   */\n  swap3\n  swap2\n  pop\n  pop\n  jump\t// out\n    /* \"#utility.yul\":3359:3528   */\ntag_24:\n    /* \"#utility.yul\":3403:3409   */\n  0x00\n    /* \"#utility.yul\":3436:3487   */\n  tag_69\n    /* \"#utility.yul\":3484:3485   */\n  0x00\n    /* \"#utility.yul\":3480:3486   */\n  not\n    /* \"#utility.yul\":3472:3477   */\n  dup5\n    /* \"#utility.yul\":3469:3470   */\n  0x08\n    /* \"#utility.yul\":3465:3478   */\n  mul\n    /* \"#utility.yul\":3436:3487   */\n  tag_23\n  jump\t// in\ntag_69:\n    /* \"#utility.yul\":3432:3488   */\n  not\n    /* \"#utility.yul\":3517:3521   */\n  dup1\n    /* \"#utility.yul\":3511:3515   */\n  dup4\n    /* \"#utility.yul\":3507:3522   */\n  and\n    /* \"#utility.yul\":3497:3522   */\n  swap2\n  pop\n    /* \"#utility.yul\":3410:3528   */\n  pop\n    /* \"#utility.yul\":3359:3528   */\n  swap3\n  swap2\n  pop\n  pop\n  jump\t// out\n    /* \"#utility.yul\":3533:3828   */\ntag_25:\n    /* \"#utility.yul\":3609:3613   */\n  0x00\n    /* \"#utility.yul\":3755:3784   */\n  tag_71\n    /* \"#utility.yul\":3780:3783   */\n  dup4\n    /* \"#utility.yul\":3774:3778   */\n  dup4\n    /* \"#utility.yul\":3755:3784   */\n  tag_24\n  jump\t// in\ntag_71:\n    /* \"#utility.yul\":3747:3784   */\n  swap2\n  pop\n    /* \"#utility.yul\":3817:3820   */\n  dup3\n    /* \"#utility.yul\":3814:3815   */\n  0x02\n    /* \"#utility.yul\":3810:3821   */\n  mul\n    /* \"#utility.yul\":3804:3808   */\n  dup3\n    /* \"#utility.yul\":3801:3822   */\n  or\n    /* \"#utility.yul\":3793:3822   */\n  swap1\n  pop\n    /* \"#utility.yul\":3533:3828   */\n  swap3\n  swap2\n  pop\n  pop\n  jump\t// out\n    /* \"#utility.yul\":3833:5228   */\ntag_2:\n    /* \"#utility.yul\":3950:3987   */\n  tag_73\n    /* \"#utility.yul\":3983:3986   */\n  dup3\n    /* \"#utility.yul\":3950:3987   */\n  tag_6\n  jump\t// in\ntag_73:\n    /* \"#utility.yul\":4052:4070   */\n  0xffffffffffffffff\n    /* \"#utility.yul\":4044:4050   */\n  dup2\n    /* \"#utility.yul\":4041:4071   */\n  gt\n    /* \"#utility.yul\":4038:4094   */\n  iszero\n  tag_74\n  jumpi\n    /* \"#utility.yul\":4074:4092   */\n  tag_75\n  tag_7\n  jump\t// in\ntag_75:\n    /* \"#utility.yul\":4038:4094   */\ntag_74:\n    /* \"#utility.yul\":4118:4156   */\n  tag_76\n    /* \"#utility.yul\":4150:4154   */\n  dup3\n    /* \"#utility.yul\":4144:4155   */\n  sload\n    /* \"#utility.yul\":4118:4156   */\n  tag_9\n  jump\t// in\ntag_76:\n    /* \"#utility.yul\":4203:4270   */\n  tag_77\n    /* \"#utility.yul\":4263:4269   */\n  dup3\n    /* \"#utility.yul\":4255:4261   */\n  dup3\n    /* \"#utility.yul\":4249:4253   */\n  dup6\n    /* \"#utility.yul\":4203:4270   */\n  tag_22\n  jump\t// in\ntag_77:\n    /* \"#utility.yul\":4297:4298   */\n  0x00\n    /* \"#utility.yul\":4321:4325   */\n  0x20\n    /* \"#utility.yul\":4308:4325   */\n  swap1\n  pop\n    /* \"#utility.yul\":4353:4355   */\n  0x1f\n    /* \"#utility.yul\":4345:4351   */\n  dup4\n    /* \"#utility.yul\":4342:4356   */\n  gt\n    /* \"#utility.yul\":4370:4371   */\n  0x01\n    /* \"#utility.yul\":4365:4983   */\n  dup2\n  eq\n  tag_79\n  jumpi\n    /* \"#utility.yul\":5027:5028   */\n  0x00\n    /* \"#utility.yul\":5044:5050   */\n  dup5\n    /* \"#utility.yul\":5041:5118   */\n  iszero\n  tag_80\n  jumpi\n    /* \"#utility.yul\":5093:5102   */\n  dup3\n    /* \"#utility.yul\":5088:5091   */\n  dup8\n    /* \"#utility.yul\":5084:5103   */\n  add\n    /* \"#utility.yul\":5078:5104   */\n  mload\n    /* \"#utility.yul\":5069:5104   */\n  swap1\n  pop\n    /* \"#utility.yul\":5041:5118   */\ntag_80:\n    /* \"#utility.yul\":5144:5211   */\n  tag_81\n    /* \"#utility.yul\":5204:5210   */\n  dup6\n    /* \"#utility.yul\":5197:5202   */\n  dup3\n    /* \"#utility.yul\":5144:5211   */\n  tag_25\n  jump\t// in\ntag_81:\n    /* \"#utility.yul\":5138:5142   */\n  dup7\n    /* \"#utility.yul\":5131:5212   */\n  sstore\n    /* \"#utility.yul\":5000:5222   */\n  pop\n    /* \"#utility.yul\":4335:5222   */\n  jump(tag_78)\n    /* \"#utility.yul\":4365:4983   */\ntag_79:\n    /* \"#utility.yul\":4417:4421   */\n  0x1f\n    /* \"#utility.yul\":4413:4422   */\n  not\n    /* \"#utility.yul\":4405:4411   */\n  dup5\n    /* \"#utility.yul\":4401:4423   */\n  and\n    /* \"#utility.yul\":4451:4488   */\n  tag_82\n    /* \"#utility.yul\":4483:4487   */\n  dup7\n    /* \"#utility.yul\":4451:4488   */\n  tag_10\n  jump\t// in\ntag_82:\n    /* \"#utility.yul\":4510:4511   */\n  0x00\n    /* \"#utility.yul\":4524:4732   */\ntag_83:\n    /* \"#utility.yul\":4538:4545   */\n  dup3\n    /* \"#utility.yul\":4535:4536   */\n  dup2\n    /* \"#utility.yul\":4532:4546   */\n  lt\n    /* \"#utility.yul\":4524:4732   */\n  iszero\n  tag_85\n  jumpi\n    /* \"#utility.yul\":4617:4626   */\n  dup5\n    /* \"#utility.yul\":4612:4615   */\n  dup10\n    /* \"#utility.yul\":4608:4627   */\n  add\n    /* \"#utility.yul\":4602:4628   */\n  mload\n    /* \"#utility.yul\":4594:4600   */\n  dup3\n    /* \"#utility.yul\":4587:4629   */\n  sstore\n    /* \"#utility.yul\":4668:4669   */\n  0x01\n    /* \"#utility.yul\":4660:4666   */\n  dup3\n    /* \"#utility.yul\":4656:4670   */\n  add\n    /* \"#utility.yul\":4646:4670   */\n  swap2\n  pop\n    /* \"#utility.yul\":4715:4717   */\n  0x20\n    /* \"#utility.yul\":4704:4713   */\n  dup6\n    /* \"#utility.yul\":4700:4718   */\n  add\n    /* \"#utility.yul\":4687:4718   */\n  swap5\n  pop\n    /* \"#utility.yul\":4561:4565   */\n  0x20\n    /* \"#utility.yul\":4558:4559   */\n  dup2\n    /* \"#utility.yul\":4554:4566   */\n  add\n    /* \"#utility.yul\":4549:4566   */\n  swap1\n  pop\n    /* \"#utility.yul\":4524:4732   */\n  jump(tag_83)\ntag_85:\n    /* \"#utility.yul\":4760:4766   */\n  dup7\n    /* \"#utility.yul\":4751:4758   */\n  dup4\n    /* \"#utility.yul\":4748:4767   */\n  lt\n    /* \"#utility.yul\":4745:4924   */\n  iszero\n  tag_86\n  jumpi\n    /* \"#utility.yul\":4818:4827   */\n  dup5\n    /* \"#utility.yul\":4813:4816   */\n  dup10\n    /* \"#utility.yul\":4809:4828   */\n  add\n    /* \"#utility.yul\":4803:4829   */\n  mload\n    /* \"#utility.yul\":4861:4909   */\n  tag_87\n    /* \"#utility.yul\":4903:4907   */\n  0x1f\n    /* \"#utility.yul\":4895:4901   */\n  dup10\n    /* \"#utility.yul\":4891:4908   */\n  and\n    /* \"#utility.yul\":4880:4889   */\n  dup3\n    /* \"#utility.yul\":4861:4909   */\n  tag_24\n  jump\t// in\ntag_87:\n    /* \"#utility.yul\":4853:4859   */\n  dup4\n    /* \"#utility.yul\":4846:4910   */\n  sstore\n    /* \"#utility.yul\":4768:4924   */\n  pop\n    /* \"#utility.yul\":4745:4924   */\ntag_86:\n    /* \"#utility.yul\":4970:4971   */\n  0x01\n    /* \"#utility.yul\":4966:4967   */\n  0x02\n    /* \"#utility.yul\":4958:4964   */\n  dup9\n    /* \"#utility.yul\":4954:4968   */\n  mul\n    /* \"#utility.yul\":4950:4972   */\n  add\n    /* \"#utility.yul\":4944:4948   */\n  dup9\n    /* \"#utility.yul\":4937:4973   */\n  sstore\n    /* \"#utility.yul\":4372:4983   */\n  pop\n  pop\n  pop\n    /* \"#utility.yul\":4335:5222   */\ntag_78:\n  pop\n    /* \"#utility.yul\":3925:5228   */\n  pop\n  pop\n  pop\n    /* \"#utility.yul\":3833:5228   */\n  pop\n  pop\n  jump\t// out\n    /* \"Variables.sol\":62:1031  contract MyContract{ ... */\ntag_5:\n  dataSize(sub_0)\n  dup1\n  dataOffset(sub_0)\n  0x00\n  codecopy\n  0x00\n  return\nstop\n\nsub_0: assembly {\n        /* \"Variables.sol\":62:1031  contract MyContract{ ... */\n      mstore(0x40, 0x80)\n      callvalue\n      dup1\n      iszero\n      tag_1\n      jumpi\n      0x00\n      dup1\n      revert\n    tag_1:\n      pop\n      jumpi(tag_2, lt(calldatasize, 0x04))\n      shr(0xe0, calldataload(0x00))\n      dup1\n      0x3c47361f\n      gt\n      tag_11\n      jumpi\n      dup1\n      0x3c47361f\n      eq\n      tag_7\n      jumpi\n      dup1\n      0x492bfa18\n      eq\n      tag_8\n      jumpi\n      dup1\n      0x6a345bb4\n      eq\n      tag_9\n      jumpi\n      dup1\n      0xa9810991\n      eq\n      tag_10\n      jumpi\n      jump(tag_2)\n    tag_11:\n      dup1\n      0x03bdf919\n      eq\n      tag_3\n      jumpi\n      dup1\n      0x20965255\n      eq\n      tag_4\n      jumpi\n      dup1\n      0x21cac573\n      eq\n      tag_5\n      jumpi\n      dup1\n      0x26b85ee1\n      eq\n      tag_6\n      jumpi\n    tag_2:\n      0x00\n      dup1\n      revert\n        /* \"Variables.sol\":322:349  uint256 public myUnit256 =1 */\n    tag_3:\n      tag_12\n      tag_13\n      jump\t// in\n    tag_12:\n      mload(0x40)\n      tag_14\n      swap2\n      swap1\n      tag_15\n      jump\t// in\n    tag_14:\n      mload(0x40)\n      dup1\n      swap2\n      sub\n      swap1\n      return\n        /* \"Variables.sol\":878:1026  function getValue() public pure returns(uint){    //pure because blockchain lai mutate gardaina... */\n    tag_4:\n      tag_16\n      tag_17\n      jump\t// in\n    tag_16:\n      mload(0x40)\n      tag_18\n      swap2\n      swap1\n      tag_15\n      jump\t// in\n    tag_18:\n      mload(0x40)\n      dup1\n      swap2\n      sub\n      swap1\n      return\n        /* \"Variables.sol\":794:847  Mystruct public mystruct = Mystruct(1,\"ThisIsString\") */\n    tag_5:\n      tag_19\n      tag_20\n      jump\t// in\n    tag_19:\n      mload(0x40)\n      tag_21\n      swap3\n      swap2\n      swap1\n      tag_22\n      jump\t// in\n    tag_21:\n      mload(0x40)\n      dup1\n      swap2\n      sub\n      swap1\n      return\n        /* \"Variables.sol\":456:525  address public myAddress = 0x71C7656EC7ab88b098defB751B7401B5f6d8976F */\n    tag_6:\n      tag_23\n      tag_24\n      jump\t// in\n    tag_23:\n      mload(0x40)\n      tag_25\n      swap2\n      swap1\n      tag_26\n      jump\t// in\n    tag_25:\n      mload(0x40)\n      dup1\n      swap2\n      sub\n      swap1\n      return\n        /* \"Variables.sol\":606:645  bytes32 public myByte32 = \"Hello World\" */\n    tag_7:\n      tag_27\n      tag_28\n      jump\t// in\n    tag_27:\n      mload(0x40)\n      tag_29\n      swap2\n      swap1\n      tag_30\n      jump\t// in\n    tag_29:\n      mload(0x40)\n      dup1\n      swap2\n      sub\n      swap1\n      return\n        /* \"Variables.sol\":669:718  string public myString= \"my cat looks like a dog\" */\n    tag_8:\n      tag_31\n      tag_32\n      jump\t// in\n    tag_31:\n      mload(0x40)\n      tag_33\n      swap2\n      swap1\n      tag_34\n      jump\t// in\n    tag_33:\n      mload(0x40)\n      dup1\n      swap2\n      sub\n      swap1\n      return\n        /* \"Variables.sol\":113:135  uint public myUnit = 1 */\n    tag_9:\n      tag_35\n      tag_36\n      jump\t// in\n    tag_35:\n      mload(0x40)\n      tag_37\n      swap2\n      swap1\n      tag_15\n      jump\t// in\n    tag_37:\n      mload(0x40)\n      dup1\n      swap2\n      sub\n      swap1\n      return\n        /* \"Variables.sol\":405:428  uint8 public myUnit8 =1 */\n    tag_10:\n      tag_38\n      tag_39\n      jump\t// in\n    tag_38:\n      mload(0x40)\n      tag_40\n      swap2\n      swap1\n      tag_41\n      jump\t// in\n    tag_40:\n      mload(0x40)\n      dup1\n      swap2\n      sub\n      swap1\n      return\n        /* \"Variables.sol\":322:349  uint256 public myUnit256 =1 */\n    tag_13:\n      sload(0x01)\n      dup2\n      jump\t// out\n        /* \"Variables.sol\":878:1026  function getValue() public pure returns(uint){    //pure because blockchain lai mutate gardaina... */\n    tag_17:\n        /* \"Variables.sol\":918:922  uint */\n      0x00\n        /* \"Variables.sol\":983:993  uint value */\n      dup1\n        /* \"Variables.sol\":994:995  1 */\n      0x01\n        /* \"Variables.sol\":983:995  uint value=1 */\n      swap1\n      pop\n        /* \"Variables.sol\":1013:1018  value */\n      dup1\n        /* \"Variables.sol\":1006:1018  return value */\n      swap2\n      pop\n      pop\n        /* \"Variables.sol\":878:1026  function getValue() public pure returns(uint){    //pure because blockchain lai mutate gardaina... */\n      swap1\n      jump\t// out\n        /* \"Variables.sol\":794:847  Mystruct public mystruct = Mystruct(1,\"ThisIsString\") */\n    tag_20:\n      0x06\n      dup1\n      0x00\n      add\n      sload\n      swap1\n      dup1\n      0x01\n      add\n      dup1\n      sload\n      tag_43\n      swap1\n      tag_44\n      jump\t// in\n    tag_43:\n      dup1\n      0x1f\n      add\n      0x20\n      dup1\n      swap2\n      div\n      mul\n      0x20\n      add\n      mload(0x40)\n      swap1\n      dup2\n      add\n      0x40\n      mstore\n      dup1\n      swap3\n      swap2\n      swap1\n      dup2\n      dup2\n      mstore\n      0x20\n      add\n      dup3\n      dup1\n      sload\n      tag_45\n      swap1\n      tag_44\n      jump\t// in\n    tag_45:\n      dup1\n      iszero\n      tag_46\n      jumpi\n      dup1\n      0x1f\n      lt\n      tag_47\n      jumpi\n      0x0100\n      dup1\n      dup4\n      sload\n      div\n      mul\n      dup4\n      mstore\n      swap2\n      0x20\n      add\n      swap2\n      jump(tag_46)\n    tag_47:\n      dup3\n      add\n      swap2\n      swap1\n      0x00\n      mstore\n      keccak256(0x00, 0x20)\n      swap1\n    tag_48:\n      dup2\n      sload\n      dup2\n      mstore\n      swap1\n      0x01\n      add\n      swap1\n      0x20\n      add\n      dup1\n      dup4\n      gt\n      tag_48\n      jumpi\n      dup3\n      swap1\n      sub\n      0x1f\n      and\n      dup3\n      add\n      swap2\n    tag_46:\n      pop\n      pop\n      pop\n      pop\n      pop\n      swap1\n      pop\n      dup3\n      jump\t// out\n        /* \"Variables.sol\":456:525  address public myAddress = 0x71C7656EC7ab88b098defB751B7401B5f6d8976F */\n    tag_24:\n      0x02\n      0x01\n      swap1\n      sload\n      swap1\n      0x0100\n      exp\n      swap1\n      div\n      0xffffffffffffffffffffffffffffffffffffffff\n      and\n      dup2\n      jump\t// out\n        /* \"Variables.sol\":606:645  bytes32 public myByte32 = \"Hello World\" */\n    tag_28:\n      sload(0x04)\n      dup2\n      jump\t// out\n        /* \"Variables.sol\":669:718  string public myString= \"my cat looks like a dog\" */\n    tag_32:\n      0x05\n      dup1\n      sload\n      tag_49\n      swap1\n      tag_44\n      jump\t// in\n    tag_49:\n      dup1\n      0x1f\n      add\n      0x20\n      dup1\n      swap2\n      div\n      mul\n      0x20\n      add\n      mload(0x40)\n      swap1\n      dup2\n      add\n      0x40\n      mstore\n      dup1\n      swap3\n      swap2\n      swap1\n      dup2\n      dup2\n      mstore\n      0x20\n      add\n      dup3\n      dup1\n      sload\n      tag_50\n      swap1\n      tag_44\n      jump\t// in\n    tag_50:\n      dup1\n      iszero\n      tag_51\n      jumpi\n      dup1\n      0x1f\n      lt\n      tag_52\n      jumpi\n      0x0100\n      dup1\n      dup4\n      sload\n      div\n      mul\n      dup4\n      mstore\n      swap2\n      0x20\n      add\n      swap2\n      jump(tag_51)\n    tag_52:\n      dup3\n      add\n      swap2\n      swap1\n      0x00\n      mstore\n      keccak256(0x00, 0x20)\n      swap1\n    tag_53:\n      dup2\n      sload\n      dup2\n      mstore\n      swap1\n      0x01\n      add\n      swap1\n      0x20\n      add\n      dup1\n      dup4\n      gt\n      tag_53\n      jumpi\n      dup3\n      swap1\n      sub\n      0x1f\n      and\n      dup3\n      add\n      swap2\n    tag_51:\n      pop\n      pop\n      pop\n      pop\n      pop\n      dup2\n      jump\t// out\n        /* \"Variables.sol\":113:135  uint public myUnit = 1 */\n    tag_36:\n      sload(0x00)\n      dup2\n      jump\t// out\n        /* \"Variables.sol\":405:428  uint8 public myUnit8 =1 */\n    tag_39:\n      0x02\n      0x00\n      swap1\n      sload\n      swap1\n      0x0100\n      exp\n      swap1\n      div\n      0xff\n      and\n      dup2\n      jump\t// out\n        /* \"#utility.yul\":7:84   */\n    tag_54:\n        /* \"#utility.yul\":44:51   */\n      0x00\n        /* \"#utility.yul\":73:78   */\n      dup2\n        /* \"#utility.yul\":62:78   */\n      swap1\n      pop\n        /* \"#utility.yul\":7:84   */\n      swap2\n      swap1\n      pop\n      jump\t// out\n        /* \"#utility.yul\":90:208   */\n    tag_55:\n        /* \"#utility.yul\":177:201   */\n      tag_74\n        /* \"#utility.yul\":195:200   */\n      dup2\n        /* \"#utility.yul\":177:201   */\n      tag_54\n      jump\t// in\n    tag_74:\n        /* \"#utility.yul\":172:175   */\n      dup3\n        /* \"#utility.yul\":165:202   */\n      mstore\n        /* \"#utility.yul\":90:208   */\n      pop\n      pop\n      jump\t// out\n        /* \"#utility.yul\":214:436   */\n    tag_15:\n        /* \"#utility.yul\":307:311   */\n      0x00\n        /* \"#utility.yul\":345:347   */\n      0x20\n        /* \"#utility.yul\":334:343   */\n      dup3\n        /* \"#utility.yul\":330:348   */\n      add\n        /* \"#utility.yul\":322:348   */\n      swap1\n      pop\n        /* \"#utility.yul\":358:429   */\n      tag_76\n        /* \"#utility.yul\":426:427   */\n      0x00\n        /* \"#utility.yul\":415:424   */\n      dup4\n        /* \"#utility.yul\":411:428   */\n      add\n        /* \"#utility.yul\":402:408   */\n      dup5\n        /* \"#utility.yul\":358:429   */\n      tag_55\n      jump\t// in\n    tag_76:\n        /* \"#utility.yul\":214:436   */\n      swap3\n      swap2\n      pop\n      pop\n      jump\t// out\n        /* \"#utility.yul\":442:518   */\n    tag_56:\n        /* \"#utility.yul\":478:485   */\n      0x00\n        /* \"#utility.yul\":507:512   */\n      dup2\n        /* \"#utility.yul\":496:512   */\n      swap1\n      pop\n        /* \"#utility.yul\":442:518   */\n      swap2\n      swap1\n      pop\n      jump\t// out\n        /* \"#utility.yul\":524:639   */\n    tag_57:\n        /* \"#utility.yul\":609:632   */\n      tag_79\n        /* \"#utility.yul\":626:631   */\n      dup2\n        /* \"#utility.yul\":609:632   */\n      tag_56\n      jump\t// in\n    tag_79:\n        /* \"#utility.yul\":604:607   */\n      dup3\n        /* \"#utility.yul\":597:633   */\n      mstore\n        /* \"#utility.yul\":524:639   */\n      pop\n      pop\n      jump\t// out\n        /* \"#utility.yul\":645:744   */\n    tag_58:\n        /* \"#utility.yul\":697:703   */\n      0x00\n        /* \"#utility.yul\":731:736   */\n      dup2\n        /* \"#utility.yul\":725:737   */\n      mload\n        /* \"#utility.yul\":715:737   */\n      swap1\n      pop\n        /* \"#utility.yul\":645:744   */\n      swap2\n      swap1\n      pop\n      jump\t// out\n        /* \"#utility.yul\":750:919   */\n    tag_59:\n        /* \"#utility.yul\":834:845   */\n      0x00\n        /* \"#utility.yul\":868:874   */\n      dup3\n        /* \"#utility.yul\":863:866   */\n      dup3\n        /* \"#utility.yul\":856:875   */\n      mstore\n        /* \"#utility.yul\":908:912   */\n      0x20\n        /* \"#utility.yul\":903:906   */\n      dup3\n        /* \"#utility.yul\":899:913   */\n      add\n        /* \"#utility.yul\":884:913   */\n      swap1\n      pop\n        /* \"#utility.yul\":750:919   */\n      swap3\n      swap2\n      pop\n      pop\n      jump\t// out\n        /* \"#utility.yul\":925:1171   */\n    tag_60:\n        /* \"#utility.yul\":1006:1007   */\n      0x00\n        /* \"#utility.yul\":1016:1129   */\n    tag_83:\n        /* \"#utility.yul\":1030:1036   */\n      dup4\n        /* \"#utility.yul\":1027:1028   */\n      dup2\n        /* \"#utility.yul\":1024:1037   */\n      lt\n        /* \"#utility.yul\":1016:1129   */\n      iszero\n      tag_85\n      jumpi\n        /* \"#utility.yul\":1115:1116   */\n      dup1\n        /* \"#utility.yul\":1110:1113   */\n      dup3\n        /* \"#utility.yul\":1106:1117   */\n      add\n        /* \"#utility.yul\":1100:1118   */\n      mload\n        /* \"#utility.yul\":1096:1097   */\n      dup2\n        /* \"#utility.yul\":1091:1094   */\n      dup5\n        /* \"#utility.yul\":1087:1098   */\n      add\n        /* \"#utility.yul\":1080:1119   */\n      mstore\n        /* \"#utility.yul\":1052:1054   */\n      0x20\n        /* \"#utility.yul\":1049:1050   */\n      dup2\n        /* \"#utility.yul\":1045:1055   */\n      add\n        /* \"#utility.yul\":1040:1055   */\n      swap1\n      pop\n        /* \"#utility.yul\":1016:1129   */\n      jump(tag_83)\n    tag_85:\n        /* \"#utility.yul\":1163:1164   */\n      0x00\n        /* \"#utility.yul\":1154:1160   */\n      dup5\n        /* \"#utility.yul\":1149:1152   */\n      dup5\n        /* \"#utility.yul\":1145:1161   */\n      add\n        /* \"#utility.yul\":1138:1165   */\n      mstore\n        /* \"#utility.yul\":987:1171   */\n      pop\n        /* \"#utility.yul\":925:1171   */\n      pop\n      pop\n      pop\n      jump\t// out\n        /* \"#utility.yul\":1177:1279   */\n    tag_61:\n        /* \"#utility.yul\":1218:1224   */\n      0x00\n        /* \"#utility.yul\":1269:1271   */\n      0x1f\n        /* \"#utility.yul\":1265:1272   */\n      not\n        /* \"#utility.yul\":1260:1262   */\n      0x1f\n        /* \"#utility.yul\":1253:1258   */\n      dup4\n        /* \"#utility.yul\":1249:1263   */\n      add\n        /* \"#utility.yul\":1245:1273   */\n      and\n        /* \"#utility.yul\":1235:1273   */\n      swap1\n      pop\n        /* \"#utility.yul\":1177:1279   */\n      swap2\n      swap1\n      pop\n      jump\t// out\n        /* \"#utility.yul\":1285:1662   */\n    tag_62:\n        /* \"#utility.yul\":1373:1376   */\n      0x00\n        /* \"#utility.yul\":1401:1440   */\n      tag_88\n        /* \"#utility.yul\":1434:1439   */\n      dup3\n        /* \"#utility.yul\":1401:1440   */\n      tag_58\n      jump\t// in\n    tag_88:\n        /* \"#utility.yul\":1456:1527   */\n      tag_89\n        /* \"#utility.yul\":1520:1526   */\n      dup2\n        /* \"#utility.yul\":1515:1518   */\n      dup6\n        /* \"#utility.yul\":1456:1527   */\n      tag_59\n      jump\t// in\n    tag_89:\n        /* \"#utility.yul\":1449:1527   */\n      swap4\n      pop\n        /* \"#utility.yul\":1536:1601   */\n      tag_90\n        /* \"#utility.yul\":1594:1600   */\n      dup2\n        /* \"#utility.yul\":1589:1592   */\n      dup6\n        /* \"#utility.yul\":1582:1586   */\n      0x20\n        /* \"#utility.yul\":1575:1580   */\n      dup7\n        /* \"#utility.yul\":1571:1587   */\n      add\n        /* \"#utility.yul\":1536:1601   */\n      tag_60\n      jump\t// in\n    tag_90:\n        /* \"#utility.yul\":1626:1655   */\n      tag_91\n        /* \"#utility.yul\":1648:1654   */\n      dup2\n        /* \"#utility.yul\":1626:1655   */\n      tag_61\n      jump\t// in\n    tag_91:\n        /* \"#utility.yul\":1621:1624   */\n      dup5\n        /* \"#utility.yul\":1617:1656   */\n      add\n        /* \"#utility.yul\":1610:1656   */\n      swap2\n      pop\n        /* \"#utility.yul\":1377:1662   */\n      pop\n        /* \"#utility.yul\":1285:1662   */\n      swap3\n      swap2\n      pop\n      pop\n      jump\t// out\n        /* \"#utility.yul\":1668:2087   */\n    tag_22:\n        /* \"#utility.yul\":1807:1811   */\n      0x00\n        /* \"#utility.yul\":1845:1847   */\n      0x40\n        /* \"#utility.yul\":1834:1843   */\n      dup3\n        /* \"#utility.yul\":1830:1848   */\n      add\n        /* \"#utility.yul\":1822:1848   */\n      swap1\n      pop\n        /* \"#utility.yul\":1858:1927   */\n      tag_93\n        /* \"#utility.yul\":1924:1925   */\n      0x00\n        /* \"#utility.yul\":1913:1922   */\n      dup4\n        /* \"#utility.yul\":1909:1926   */\n      add\n        /* \"#utility.yul\":1900:1906   */\n      dup6\n        /* \"#utility.yul\":1858:1927   */\n      tag_57\n      jump\t// in\n    tag_93:\n        /* \"#utility.yul\":1974:1983   */\n      dup2\n        /* \"#utility.yul\":1968:1972   */\n      dup2\n        /* \"#utility.yul\":1964:1984   */\n      sub\n        /* \"#utility.yul\":1959:1961   */\n      0x20\n        /* \"#utility.yul\":1948:1957   */\n      dup4\n        /* \"#utility.yul\":1944:1962   */\n      add\n        /* \"#utility.yul\":1937:1985   */\n      mstore\n        /* \"#utility.yul\":2002:2080   */\n      tag_94\n        /* \"#utility.yul\":2075:2079   */\n      dup2\n        /* \"#utility.yul\":2066:2072   */\n      dup5\n        /* \"#utility.yul\":2002:2080   */\n      tag_62\n      jump\t// in\n    tag_94:\n        /* \"#utility.yul\":1994:2080   */\n      swap1\n      pop\n        /* \"#utility.yul\":1668:2087   */\n      swap4\n      swap3\n      pop\n      pop\n      pop\n      jump\t// out\n        /* \"#utility.yul\":2093:2219   */\n    tag_63:\n        /* \"#utility.yul\":2130:2137   */\n      0x00\n        /* \"#utility.yul\":2170:2212   */\n      0xffffffffffffffffffffffffffffffffffffffff\n        /* \"#utility.yul\":2163:2168   */\n      dup3\n        /* \"#utility.yul\":2159:2213   */\n      and\n        /* \"#utility.yul\":2148:2213   */\n      swap1\n      pop\n        /* \"#utility.yul\":2093:2219   */\n      swap2\n      swap1\n      pop\n      jump\t// out\n        /* \"#utility.yul\":2225:2321   */\n    tag_64:\n        /* \"#utility.yul\":2262:2269   */\n      0x00\n        /* \"#utility.yul\":2291:2315   */\n      tag_97\n        /* \"#utility.yul\":2309:2314   */\n      dup3\n        /* \"#utility.yul\":2291:2315   */\n      tag_63\n      jump\t// in\n    tag_97:\n        /* \"#utility.yul\":2280:2315   */\n      swap1\n      pop\n        /* \"#utility.yul\":2225:2321   */\n      swap2\n      swap1\n      pop\n      jump\t// out\n        /* \"#utility.yul\":2327:2445   */\n    tag_65:\n        /* \"#utility.yul\":2414:2438   */\n      tag_99\n        /* \"#utility.yul\":2432:2437   */\n      dup2\n        /* \"#utility.yul\":2414:2438   */\n      tag_64\n      jump\t// in\n    tag_99:\n        /* \"#utility.yul\":2409:2412   */\n      dup3\n        /* \"#utility.yul\":2402:2439   */\n      mstore\n        /* \"#utility.yul\":2327:2445   */\n      pop\n      pop\n      jump\t// out\n        /* \"#utility.yul\":2451:2673   */\n    tag_26:\n        /* \"#utility.yul\":2544:2548   */\n      0x00\n        /* \"#utility.yul\":2582:2584   */\n      0x20\n        /* \"#utility.yul\":2571:2580   */\n      dup3\n        /* \"#utility.yul\":2567:2585   */\n      add\n        /* \"#utility.yul\":2559:2585   */\n      swap1\n      pop\n        /* \"#utility.yul\":2595:2666   */\n      tag_101\n        /* \"#utility.yul\":2663:2664   */\n      0x00\n        /* \"#utility.yul\":2652:2661   */\n      dup4\n        /* \"#utility.yul\":2648:2665   */\n      add\n        /* \"#utility.yul\":2639:2645   */\n      dup5\n        /* \"#utility.yul\":2595:2666   */\n      tag_65\n      jump\t// in\n    tag_101:\n        /* \"#utility.yul\":2451:2673   */\n      swap3\n      swap2\n      pop\n      pop\n      jump\t// out\n        /* \"#utility.yul\":2679:2756   */\n    tag_66:\n        /* \"#utility.yul\":2716:2723   */\n      0x00\n        /* \"#utility.yul\":2745:2750   */\n      dup2\n        /* \"#utility.yul\":2734:2750   */\n      swap1\n      pop\n        /* \"#utility.yul\":2679:2756   */\n      swap2\n      swap1\n      pop\n      jump\t// out\n        /* \"#utility.yul\":2762:2880   */\n    tag_67:\n        /* \"#utility.yul\":2849:2873   */\n      tag_104\n        /* \"#utility.yul\":2867:2872   */\n      dup2\n        /* \"#utility.yul\":2849:2873   */\n      tag_66\n      jump\t// in\n    tag_104:\n        /* \"#utility.yul\":2844:2847   */\n      dup3\n        /* \"#utility.yul\":2837:2874   */\n      mstore\n        /* \"#utility.yul\":2762:2880   */\n      pop\n      pop\n      jump\t// out\n        /* \"#utility.yul\":2886:3108   */\n    tag_30:\n        /* \"#utility.yul\":2979:2983   */\n      0x00\n        /* \"#utility.yul\":3017:3019   */\n      0x20\n        /* \"#utility.yul\":3006:3015   */\n      dup3\n        /* \"#utility.yul\":3002:3020   */\n      add\n        /* \"#utility.yul\":2994:3020   */\n      swap1\n      pop\n        /* \"#utility.yul\":3030:3101   */\n      tag_106\n        /* \"#utility.yul\":3098:3099   */\n      0x00\n        /* \"#utility.yul\":3087:3096   */\n      dup4\n        /* \"#utility.yul\":3083:3100   */\n      add\n        /* \"#utility.yul\":3074:3080   */\n      dup5\n        /* \"#utility.yul\":3030:3101   */\n      tag_67\n      jump\t// in\n    tag_106:\n        /* \"#utility.yul\":2886:3108   */\n      swap3\n      swap2\n      pop\n      pop\n      jump\t// out\n        /* \"#utility.yul\":3114:3427   */\n    tag_34:\n        /* \"#utility.yul\":3227:3231   */\n      0x00\n        /* \"#utility.yul\":3265:3267   */\n      0x20\n        /* \"#utility.yul\":3254:3263   */\n      dup3\n        /* \"#utility.yul\":3250:3268   */\n      add\n        /* \"#utility.yul\":3242:3268   */\n      swap1\n      pop\n        /* \"#utility.yul\":3314:3323   */\n      dup2\n        /* \"#utility.yul\":3308:3312   */\n      dup2\n        /* \"#utility.yul\":3304:3324   */\n      sub\n        /* \"#utility.yul\":3300:3301   */\n      0x00\n        /* \"#utility.yul\":3289:3298   */\n      dup4\n        /* \"#utility.yul\":3285:3302   */\n      add\n        /* \"#utility.yul\":3278:3325   */\n      mstore\n        /* \"#utility.yul\":3342:3420   */\n      tag_108\n        /* \"#utility.yul\":3415:3419   */\n      dup2\n        /* \"#utility.yul\":3406:3412   */\n      dup5\n        /* \"#utility.yul\":3342:3420   */\n      tag_62\n      jump\t// in\n    tag_108:\n        /* \"#utility.yul\":3334:3420   */\n      swap1\n      pop\n        /* \"#utility.yul\":3114:3427   */\n      swap3\n      swap2\n      pop\n      pop\n      jump\t// out\n        /* \"#utility.yul\":3433:3519   */\n    tag_68:\n        /* \"#utility.yul\":3468:3475   */\n      0x00\n        /* \"#utility.yul\":3508:3512   */\n      0xff\n        /* \"#utility.yul\":3501:3506   */\n      dup3\n        /* \"#utility.yul\":3497:3513   */\n      and\n        /* \"#utility.yul\":3486:3513   */\n      swap1\n      pop\n        /* \"#utility.yul\":3433:3519   */\n      swap2\n      swap1\n      pop\n      jump\t// out\n        /* \"#utility.yul\":3525:3637   */\n    tag_69:\n        /* \"#utility.yul\":3608:3630   */\n      tag_111\n        /* \"#utility.yul\":3624:3629   */\n      dup2\n        /* \"#utility.yul\":3608:3630   */\n      tag_68\n      jump\t// in\n    tag_111:\n        /* \"#utility.yul\":3603:3606   */\n      dup3\n        /* \"#utility.yul\":3596:3631   */\n      mstore\n        /* \"#utility.yul\":3525:3637   */\n      pop\n      pop\n      jump\t// out\n        /* \"#utility.yul\":3643:3857   */\n    tag_41:\n        /* \"#utility.yul\":3732:3736   */\n      0x00\n        /* \"#utility.yul\":3770:3772   */\n      0x20\n        /* \"#utility.yul\":3759:3768   */\n      dup3\n        /* \"#utility.yul\":3755:3773   */\n      add\n        /* \"#utility.yul\":3747:3773   */\n      swap1\n      pop\n        /* \"#utility.yul\":3783:3850   */\n      tag_113\n        /* \"#utility.yul\":3847:3848   */\n      0x00\n        /* \"#utility.yul\":3836:3845   */\n      dup4\n        /* \"#utility.yul\":3832:3849   */\n      add\n        /* \"#utility.yul\":3823:3829   */\n      dup5\n        /* \"#utility.yul\":3783:3850   */\n      tag_69\n      jump\t// in\n    tag_113:\n        /* \"#utility.yul\":3643:3857   */\n      swap3\n      swap2\n      pop\n      pop\n      jump\t// out\n        /* \"#utility.yul\":3863:4043   */\n    tag_70:\n        /* \"#utility.yul\":3911:3988   */\n      0x4e487b7100000000000000000000000000000000000000000000000000000000\n        /* \"#utility.yul\":3908:3909   */\n      0x00\n        /* \"#utility.yul\":3901:3989   */\n      mstore\n        /* \"#utility.yul\":4008:4012   */\n      0x22\n        /* \"#utility.yul\":4005:4006   */\n      0x04\n        /* \"#utility.yul\":3998:4013   */\n      mstore\n        /* \"#utility.yul\":4032:4036   */\n      0x24\n        /* \"#utility.yul\":4029:4030   */\n      0x00\n        /* \"#utility.yul\":4022:4037   */\n      revert\n        /* \"#utility.yul\":4049:4369   */\n    tag_44:\n        /* \"#utility.yul\":4093:4099   */\n      0x00\n        /* \"#utility.yul\":4130:4131   */\n      0x02\n        /* \"#utility.yul\":4124:4128   */\n      dup3\n        /* \"#utility.yul\":4120:4132   */\n      div\n        /* \"#utility.yul\":4110:4132   */\n      swap1\n      pop\n        /* \"#utility.yul\":4177:4178   */\n      0x01\n        /* \"#utility.yul\":4171:4175   */\n      dup3\n        /* \"#utility.yul\":4167:4179   */\n      and\n        /* \"#utility.yul\":4198:4216   */\n      dup1\n        /* \"#utility.yul\":4188:4269   */\n      tag_116\n      jumpi\n        /* \"#utility.yul\":4254:4258   */\n      0x7f\n        /* \"#utility.yul\":4246:4252   */\n      dup3\n        /* \"#utility.yul\":4242:4259   */\n      and\n        /* \"#utility.yul\":4232:4259   */\n      swap2\n      pop\n        /* \"#utility.yul\":4188:4269   */\n    tag_116:\n        /* \"#utility.yul\":4316:4318   */\n      0x20\n        /* \"#utility.yul\":4308:4314   */\n      dup3\n        /* \"#utility.yul\":4305:4319   */\n      lt\n        /* \"#utility.yul\":4285:4303   */\n      dup2\n        /* \"#utility.yul\":4282:4320   */\n      sub\n        /* \"#utility.yul\":4279:4363   */\n      tag_117\n      jumpi\n        /* \"#utility.yul\":4335:4353   */\n      tag_118\n      tag_70\n      jump\t// in\n    tag_118:\n        /* \"#utility.yul\":4279:4363   */\n    tag_117:\n        /* \"#utility.yul\":4100:4369   */\n      pop\n        /* \"#utility.yul\":4049:4369   */\n      swap2\n      swap1\n      pop\n      jump\t// out\n\n    auxdata: 0xa2646970667358221220b22ac487b39f20eacc417cf941773d66eec028a84f36589e1759580d9646012a64736f6c63430008110033\n}\n",
				"bytecode": {
					"linkReferences": {},
					"object": "60806040526001600055600180556001600260006101000a81548160ff021916908360ff1602179055507371c7656ec7ab88b098defb751b7401b5f6d8976f600260016101000a81548173ffffffffffffffffffffffffffffffffffffffff021916908373ffffffffffffffffffffffffffffffffffffffff16021790555060016003557f48656c6c6f20576f726c640000000000000000000000000000000000000000006004556040518060400160405280601781526020017f6d7920636174206c6f6f6b73206c696b65206120646f6700000000000000000081525060059081620000ed9190620003ed565b506040518060400160405280600181526020016040518060400160405280600c81526020017f546869734973537472696e67000000000000000000000000000000000000000081525081525060066000820151816000015560208201518160010190816200015c9190620003ed565b5050503480156200016c57600080fd5b50620004d4565b600081519050919050565b7f4e487b7100000000000000000000000000000000000000000000000000000000600052604160045260246000fd5b7f4e487b7100000000000000000000000000000000000000000000000000000000600052602260045260246000fd5b60006002820490506001821680620001f557607f821691505b6020821081036200020b576200020a620001ad565b5b50919050565b60008190508160005260206000209050919050565b60006020601f8301049050919050565b600082821b905092915050565b600060088302620002757fffffffffffffffffffffffffffffffffffffffffffffffffffffffffffffffff8262000236565b62000281868362000236565b95508019841693508086168417925050509392505050565b6000819050919050565b6000819050919050565b6000620002ce620002c8620002c28462000299565b620002a3565b62000299565b9050919050565b6000819050919050565b620002ea83620002ad565b62000302620002f982620002d5565b84845462000243565b825550505050565b600090565b620003196200030a565b62000326818484620002df565b505050565b5b818110156200034e57620003426000826200030f565b6001810190506200032c565b5050565b601f8211156200039d57620003678162000211565b620003728462000226565b8101602085101562000382578190505b6200039a620003918562000226565b8301826200032b565b50505b505050565b600082821c905092915050565b6000620003c260001984600802620003a2565b1980831691505092915050565b6000620003dd8383620003af565b9150826002028217905092915050565b620003f88262000173565b67ffffffffffffffff8111156200041457620004136200017e565b5b620004208254620001dc565b6200042d82828562000352565b600060209050601f83116001811462000465576000841562000450578287015190505b6200045c8582620003cf565b865550620004cc565b601f198416620004758662000211565b60005b828110156200049f5784890151825560018201915060208501945060208101905062000478565b86831015620004bf5784890151620004bb601f891682620003af565b8355505b6001600288020188555050505b505050505050565b61058b80620004e46000396000f3fe608060405234801561001057600080fd5b50600436106100885760003560e01c80633c47361f1161005b5780633c47361f14610106578063492bfa18146101245780636a345bb414610142578063a98109911461016057610088565b806303bdf9191461008d57806320965255146100ab57806321cac573146100c957806326b85ee1146100e8575b600080fd5b61009561017e565b6040516100a29190610318565b60405180910390f35b6100b3610184565b6040516100c09190610318565b60405180910390f35b6100d1610192565b6040516100df9291906103dc565b60405180910390f35b6100f061022c565b6040516100fd919061044d565b60405180910390f35b61010e610252565b60405161011b9190610481565b60405180910390f35b61012c610258565b604051610139919061049c565b60405180910390f35b61014a6102e6565b6040516101579190610318565b60405180910390f35b6101686102ec565b60405161017591906104da565b60405180910390f35b60015481565b600080600190508091505090565b60068060000154908060010180546101a990610524565b80601f01602080910402602001604051908101604052809291908181526020018280546101d590610524565b80156102225780601f106101f757610100808354040283529160200191610222565b820191906000526020600020905b81548152906001019060200180831161020557829003601f168201915b5050505050905082565b600260019054906101000a900473ffffffffffffffffffffffffffffffffffffffff1681565b60045481565b6005805461026590610524565b80601f016020809104026020016040519081016040528092919081815260200182805461029190610524565b80156102de5780601f106102b3576101008083540402835291602001916102de565b820191906000526020600020905b8154815290600101906020018083116102c157829003601f168201915b505050505081565b60005481565b600260009054906101000a900460ff1681565b6000819050919050565b610312816102ff565b82525050565b600060208201905061032d6000830184610309565b92915050565b6000819050919050565b61034681610333565b82525050565b600081519050919050565b600082825260208201905092915050565b60005b8381101561038657808201518184015260208101905061036b565b60008484015250505050565b6000601f19601f8301169050919050565b60006103ae8261034c565b6103b88185610357565b93506103c8818560208601610368565b6103d181610392565b840191505092915050565b60006040820190506103f1600083018561033d565b818103602083015261040381846103a3565b90509392505050565b600073ffffffffffffffffffffffffffffffffffffffff82169050919050565b60006104378261040c565b9050919050565b6104478161042c565b82525050565b6000602082019050610462600083018461043e565b92915050565b6000819050919050565b61047b81610468565b82525050565b60006020820190506104966000830184610472565b92915050565b600060208201905081810360008301526104b681846103a3565b905092915050565b600060ff82169050919050565b6104d4816104be565b82525050565b60006020820190506104ef60008301846104cb565b92915050565b7f4e487b7100000000000000000000000000000000000000000000000000000000600052602260045260246000fd5b6000600282049050600182168061053c57607f821691505b60208210810361054f5761054e6104f5565b5b5091905056fea2646970667358221220b22ac487b39f20eacc417cf941773d66eec028a84f36589e1759580d9646012a64736f6c63430008110033",
					"opcodes": "PUSH1 0x80 PUSH1 0x40 MSTORE PUSH1 0x1 PUSH1 0x0 SSTORE PUSH1 0x1 DUP1 SSTORE PUSH1 0x1 PUSH1 0x2 PUSH1 0x0 PUSH2 0x100 EXP DUP2 SLOAD DUP2 PUSH1 0xFF MUL NOT AND SWAP1 DUP4 PUSH1 0xFF AND MUL OR SWAP1 SSTORE POP PUSH20 0x71C7656EC7AB88B098DEFB751B7401B5F6D8976F PUSH1 0x2 PUSH1 0x1 PUSH2 0x100 EXP DUP2 SLOAD DUP2 PUSH20 0xFFFFFFFFFFFFFFFFFFFFFFFFFFFFFFFFFFFFFFFF MUL NOT AND SWAP1 DUP4 PUSH20 0xFFFFFFFFFFFFFFFFFFFFFFFFFFFFFFFFFFFFFFFF AND MUL OR SWAP1 SSTORE POP PUSH1 0x1 PUSH1 0x3 SSTORE PUSH32 0x48656C6C6F20576F726C64000000000000000000000000000000000000000000 PUSH1 0x4 SSTORE PUSH1 0x40 MLOAD DUP1 PUSH1 0x40 ADD PUSH1 0x40 MSTORE DUP1 PUSH1 0x17 DUP2 MSTORE PUSH1 0x20 ADD PUSH32 0x6D7920636174206C6F6F6B73206C696B65206120646F67000000000000000000 DUP2 MSTORE POP PUSH1 0x5 SWAP1 DUP2 PUSH3 0xED SWAP2 SWAP1 PUSH3 0x3ED JUMP JUMPDEST POP PUSH1 0x40 MLOAD DUP1 PUSH1 0x40 ADD PUSH1 0x40 MSTORE DUP1 PUSH1 0x1 DUP2 MSTORE PUSH1 0x20 ADD PUSH1 0x40 MLOAD DUP1 PUSH1 0x40 ADD PUSH1 0x40 MSTORE DUP1 PUSH1 0xC DUP2 MSTORE PUSH1 0x20 ADD PUSH32 0x546869734973537472696E670000000000000000000000000000000000000000 DUP2 MSTORE POP DUP2 MSTORE POP PUSH1 0x6 PUSH1 0x0 DUP3 ADD MLOAD DUP2 PUSH1 0x0 ADD SSTORE PUSH1 0x20 DUP3 ADD MLOAD DUP2 PUSH1 0x1 ADD SWAP1 DUP2 PUSH3 0x15C SWAP2 SWAP1 PUSH3 0x3ED JUMP JUMPDEST POP POP POP CALLVALUE DUP1 ISZERO PUSH3 0x16C JUMPI PUSH1 0x0 DUP1 REVERT JUMPDEST POP PUSH3 0x4D4 JUMP JUMPDEST PUSH1 0x0 DUP2 MLOAD SWAP1 POP SWAP2 SWAP1 POP JUMP JUMPDEST PUSH32 0x4E487B7100000000000000000000000000000000000000000000000000000000 PUSH1 0x0 MSTORE PUSH1 0x41 PUSH1 0x4 MSTORE PUSH1 0x24 PUSH1 0x0 REVERT JUMPDEST PUSH32 0x4E487B7100000000000000000000000000000000000000000000000000000000 PUSH1 0x0 MSTORE PUSH1 0x22 PUSH1 0x4 MSTORE PUSH1 0x24 PUSH1 0x0 REVERT JUMPDEST PUSH1 0x0 PUSH1 0x2 DUP3 DIV SWAP1 POP PUSH1 0x1 DUP3 AND DUP1 PUSH3 0x1F5 JUMPI PUSH1 0x7F DUP3 AND SWAP2 POP JUMPDEST PUSH1 0x20 DUP3 LT DUP2 SUB PUSH3 0x20B JUMPI PUSH3 0x20A PUSH3 0x1AD JUMP JUMPDEST JUMPDEST POP SWAP2 SWAP1 POP JUMP JUMPDEST PUSH1 0x0 DUP2 SWAP1 POP DUP2 PUSH1 0x0 MSTORE PUSH1 0x20 PUSH1 0x0 KECCAK256 SWAP1 POP SWAP2 SWAP1 POP JUMP JUMPDEST PUSH1 0x0 PUSH1 0x20 PUSH1 0x1F DUP4 ADD DIV SWAP1 POP SWAP2 SWAP1 POP JUMP JUMPDEST PUSH1 0x0 DUP3 DUP3 SHL SWAP1 POP SWAP3 SWAP2 POP POP JUMP JUMPDEST PUSH1 0x0 PUSH1 0x8 DUP4 MUL PUSH3 0x275 PUSH32 0xFFFFFFFFFFFFFFFFFFFFFFFFFFFFFFFFFFFFFFFFFFFFFFFFFFFFFFFFFFFFFFFF DUP3 PUSH3 0x236 JUMP JUMPDEST PUSH3 0x281 DUP7 DUP4 PUSH3 0x236 JUMP JUMPDEST SWAP6 POP DUP1 NOT DUP5 AND SWAP4 POP DUP1 DUP7 AND DUP5 OR SWAP3 POP POP POP SWAP4 SWAP3 POP POP POP JUMP JUMPDEST PUSH1 0x0 DUP2 SWAP1 POP SWAP2 SWAP1 POP JUMP JUMPDEST PUSH1 0x0 DUP2 SWAP1 POP SWAP2 SWAP1 POP JUMP JUMPDEST PUSH1 0x0 PUSH3 0x2CE PUSH3 0x2C8 PUSH3 0x2C2 DUP5 PUSH3 0x299 JUMP JUMPDEST PUSH3 0x2A3 JUMP JUMPDEST PUSH3 0x299 JUMP JUMPDEST SWAP1 POP SWAP2 SWAP1 POP JUMP JUMPDEST PUSH1 0x0 DUP2 SWAP1 POP SWAP2 SWAP1 POP JUMP JUMPDEST PUSH3 0x2EA DUP4 PUSH3 0x2AD JUMP JUMPDEST PUSH3 0x302 PUSH3 0x2F9 DUP3 PUSH3 0x2D5 JUMP JUMPDEST DUP5 DUP5 SLOAD PUSH3 0x243 JUMP JUMPDEST DUP3 SSTORE POP POP POP POP JUMP JUMPDEST PUSH1 0x0 SWAP1 JUMP JUMPDEST PUSH3 0x319 PUSH3 0x30A JUMP JUMPDEST PUSH3 0x326 DUP2 DUP5 DUP5 PUSH3 0x2DF JUMP JUMPDEST POP POP POP JUMP JUMPDEST JUMPDEST DUP2 DUP2 LT ISZERO PUSH3 0x34E JUMPI PUSH3 0x342 PUSH1 0x0 DUP3 PUSH3 0x30F JUMP JUMPDEST PUSH1 0x1 DUP2 ADD SWAP1 POP PUSH3 0x32C JUMP JUMPDEST POP POP JUMP JUMPDEST PUSH1 0x1F DUP3 GT ISZERO PUSH3 0x39D JUMPI PUSH3 0x367 DUP2 PUSH3 0x211 JUMP JUMPDEST PUSH3 0x372 DUP5 PUSH3 0x226 JUMP JUMPDEST DUP2 ADD PUSH1 0x20 DUP6 LT ISZERO PUSH3 0x382 JUMPI DUP2 SWAP1 POP JUMPDEST PUSH3 0x39A PUSH3 0x391 DUP6 PUSH3 0x226 JUMP JUMPDEST DUP4 ADD DUP3 PUSH3 0x32B JUMP JUMPDEST POP POP JUMPDEST POP POP POP JUMP JUMPDEST PUSH1 0x0 DUP3 DUP3 SHR SWAP1 POP SWAP3 SWAP2 POP POP JUMP JUMPDEST PUSH1 0x0 PUSH3 0x3C2 PUSH1 0x0 NOT DUP5 PUSH1 0x8 MUL PUSH3 0x3A2 JUMP JUMPDEST NOT DUP1 DUP4 AND SWAP2 POP POP SWAP3 SWAP2 POP POP JUMP JUMPDEST PUSH1 0x0 PUSH3 0x3DD DUP4 DUP4 PUSH3 0x3AF JUMP JUMPDEST SWAP2 POP DUP3 PUSH1 0x2 MUL DUP3 OR SWAP1 POP SWAP3 SWAP2 POP POP JUMP JUMPDEST PUSH3 0x3F8 DUP3 PUSH3 0x173 JUMP JUMPDEST PUSH8 0xFFFFFFFFFFFFFFFF DUP2 GT ISZERO PUSH3 0x414 JUMPI PUSH3 0x413 PUSH3 0x17E JUMP JUMPDEST JUMPDEST PUSH3 0x420 DUP3 SLOAD PUSH3 0x1DC JUMP JUMPDEST PUSH3 0x42D DUP3 DUP3 DUP6 PUSH3 0x352 JUMP JUMPDEST PUSH1 0x0 PUSH1 0x20 SWAP1 POP PUSH1 0x1F DUP4 GT PUSH1 0x1 DUP2 EQ PUSH3 0x465 JUMPI PUSH1 0x0 DUP5 ISZERO PUSH3 0x450 JUMPI DUP3 DUP8 ADD MLOAD SWAP1 POP JUMPDEST PUSH3 0x45C DUP6 DUP3 PUSH3 0x3CF JUMP JUMPDEST DUP7 SSTORE POP PUSH3 0x4CC JUMP JUMPDEST PUSH1 0x1F NOT DUP5 AND PUSH3 0x475 DUP7 PUSH3 0x211 JUMP JUMPDEST PUSH1 0x0 JUMPDEST DUP3 DUP2 LT ISZERO PUSH3 0x49F JUMPI DUP5 DUP10 ADD MLOAD DUP3 SSTORE PUSH1 0x1 DUP3 ADD SWAP2 POP PUSH1 0x20 DUP6 ADD SWAP5 POP PUSH1 0x20 DUP2 ADD SWAP1 POP PUSH3 0x478 JUMP JUMPDEST DUP7 DUP4 LT ISZERO PUSH3 0x4BF JUMPI DUP5 DUP10 ADD MLOAD PUSH3 0x4BB PUSH1 0x1F DUP10 AND DUP3 PUSH3 0x3AF JUMP JUMPDEST DUP4 SSTORE POP JUMPDEST PUSH1 0x1 PUSH1 0x2 DUP9 MUL ADD DUP9 SSTORE POP POP POP JUMPDEST POP POP POP POP POP POP JUMP JUMPDEST PUSH2 0x58B DUP1 PUSH3 0x4E4 PUSH1 0x0 CODECOPY PUSH1 0x0 RETURN INVALID PUSH1 0x80 PUSH1 0x40 MSTORE CALLVALUE DUP1 ISZERO PUSH2 0x10 JUMPI PUSH1 0x0 DUP1 REVERT JUMPDEST POP PUSH1 0x4 CALLDATASIZE LT PUSH2 0x88 JUMPI PUSH1 0x0 CALLDATALOAD PUSH1 0xE0 SHR DUP1 PUSH4 0x3C47361F GT PUSH2 0x5B JUMPI DUP1 PUSH4 0x3C47361F EQ PUSH2 0x106 JUMPI DUP1 PUSH4 0x492BFA18 EQ PUSH2 0x124 JUMPI DUP1 PUSH4 0x6A345BB4 EQ PUSH2 0x142 JUMPI DUP1 PUSH4 0xA9810991 EQ PUSH2 0x160 JUMPI PUSH2 0x88 JUMP JUMPDEST DUP1 PUSH4 0x3BDF919 EQ PUSH2 0x8D JUMPI DUP1 PUSH4 0x20965255 EQ PUSH2 0xAB JUMPI DUP1 PUSH4 0x21CAC573 EQ PUSH2 0xC9 JUMPI DUP1 PUSH4 0x26B85EE1 EQ PUSH2 0xE8 JUMPI JUMPDEST PUSH1 0x0 DUP1 REVERT JUMPDEST PUSH2 0x95 PUSH2 0x17E JUMP JUMPDEST PUSH1 0x40 MLOAD PUSH2 0xA2 SWAP2 SWAP1 PUSH2 0x318 JUMP JUMPDEST PUSH1 0x40 MLOAD DUP1 SWAP2 SUB SWAP1 RETURN JUMPDEST PUSH2 0xB3 PUSH2 0x184 JUMP JUMPDEST PUSH1 0x40 MLOAD PUSH2 0xC0 SWAP2 SWAP1 PUSH2 0x318 JUMP JUMPDEST PUSH1 0x40 MLOAD DUP1 SWAP2 SUB SWAP1 RETURN JUMPDEST PUSH2 0xD1 PUSH2 0x192 JUMP JUMPDEST PUSH1 0x40 MLOAD PUSH2 0xDF SWAP3 SWAP2 SWAP1 PUSH2 0x3DC JUMP JUMPDEST PUSH1 0x40 MLOAD DUP1 SWAP2 SUB SWAP1 RETURN JUMPDEST PUSH2 0xF0 PUSH2 0x22C JUMP JUMPDEST PUSH1 0x40 MLOAD PUSH2 0xFD SWAP2 SWAP1 PUSH2 0x44D JUMP JUMPDEST PUSH1 0x40 MLOAD DUP1 SWAP2 SUB SWAP1 RETURN JUMPDEST PUSH2 0x10E PUSH2 0x252 JUMP JUMPDEST PUSH1 0x40 MLOAD PUSH2 0x11B SWAP2 SWAP1 PUSH2 0x481 JUMP JUMPDEST PUSH1 0x40 MLOAD DUP1 SWAP2 SUB SWAP1 RETURN JUMPDEST PUSH2 0x12C PUSH2 0x258 JUMP JUMPDEST PUSH1 0x40 MLOAD PUSH2 0x139 SWAP2 SWAP1 PUSH2 0x49C JUMP JUMPDEST PUSH1 0x40 MLOAD DUP1 SWAP2 SUB SWAP1 RETURN JUMPDEST PUSH2 0x14A PUSH2 0x2E6 JUMP JUMPDEST PUSH1 0x40 MLOAD PUSH2 0x157 SWAP2 SWAP1 PUSH2 0x318 JUMP JUMPDEST PUSH1 0x40 MLOAD DUP1 SWAP2 SUB SWAP1 RETURN JUMPDEST PUSH2 0x168 PUSH2 0x2EC JUMP JUMPDEST PUSH1 0x40 MLOAD PUSH2 0x175 SWAP2 SWAP1 PUSH2 0x4DA JUMP JUMPDEST PUSH1 0x40 MLOAD DUP1 SWAP2 SUB SWAP1 RETURN JUMPDEST PUSH1 0x1 SLOAD DUP2 JUMP JUMPDEST PUSH1 0x0 DUP1 PUSH1 0x1 SWAP1 POP DUP1 SWAP2 POP POP SWAP1 JUMP JUMPDEST PUSH1 0x6 DUP1 PUSH1 0x0 ADD SLOAD SWAP1 DUP1 PUSH1 0x1 ADD DUP1 SLOAD PUSH2 0x1A9 SWAP1 PUSH2 0x524 JUMP JUMPDEST DUP1 PUSH1 0x1F ADD PUSH1 0x20 DUP1 SWAP2 DIV MUL PUSH1 0x20 ADD PUSH1 0x40 MLOAD SWAP1 DUP2 ADD PUSH1 0x40 MSTORE DUP1 SWAP3 SWAP2 SWAP1 DUP2 DUP2 MSTORE PUSH1 0x20 ADD DUP3 DUP1 SLOAD PUSH2 0x1D5 SWAP1 PUSH2 0x524 JUMP JUMPDEST DUP1 ISZERO PUSH2 0x222 JUMPI DUP1 PUSH1 0x1F LT PUSH2 0x1F7 JUMPI PUSH2 0x100 DUP1 DUP4 SLOAD DIV MUL DUP4 MSTORE SWAP2 PUSH1 0x20 ADD SWAP2 PUSH2 0x222 JUMP JUMPDEST DUP3 ADD SWAP2 SWAP1 PUSH1 0x0 MSTORE PUSH1 0x20 PUSH1 0x0 KECCAK256 SWAP1 JUMPDEST DUP2 SLOAD DUP2 MSTORE SWAP1 PUSH1 0x1 ADD SWAP1 PUSH1 0x20 ADD DUP1 DUP4 GT PUSH2 0x205 JUMPI DUP3 SWAP1 SUB PUSH1 0x1F AND DUP3 ADD SWAP2 JUMPDEST POP POP POP POP POP SWAP1 POP DUP3 JUMP JUMPDEST PUSH1 0x2 PUSH1 0x1 SWAP1 SLOAD SWAP1 PUSH2 0x100 EXP SWAP1 DIV PUSH20 0xFFFFFFFFFFFFFFFFFFFFFFFFFFFFFFFFFFFFFFFF AND DUP2 JUMP JUMPDEST PUSH1 0x4 SLOAD DUP2 JUMP JUMPDEST PUSH1 0x5 DUP1 SLOAD PUSH2 0x265 SWAP1 PUSH2 0x524 JUMP JUMPDEST DUP1 PUSH1 0x1F ADD PUSH1 0x20 DUP1 SWAP2 DIV MUL PUSH1 0x20 ADD PUSH1 0x40 MLOAD SWAP1 DUP2 ADD PUSH1 0x40 MSTORE DUP1 SWAP3 SWAP2 SWAP1 DUP2 DUP2 MSTORE PUSH1 0x20 ADD DUP3 DUP1 SLOAD PUSH2 0x291 SWAP1 PUSH2 0x524 JUMP JUMPDEST DUP1 ISZERO PUSH2 0x2DE JUMPI DUP1 PUSH1 0x1F LT PUSH2 0x2B3 JUMPI PUSH2 0x100 DUP1 DUP4 SLOAD DIV MUL DUP4 MSTORE SWAP2 PUSH1 0x20 ADD SWAP2 PUSH2 0x2DE JUMP JUMPDEST DUP3 ADD SWAP2 SWAP1 PUSH1 0x0 MSTORE PUSH1 0x20 PUSH1 0x0 KECCAK256 SWAP1 JUMPDEST DUP2 SLOAD DUP2 MSTORE SWAP1 PUSH1 0x1 ADD SWAP1 PUSH1 0x20 ADD DUP1 DUP4 GT PUSH2 0x2C1 JUMPI DUP3 SWAP1 SUB PUSH1 0x1F AND DUP3 ADD SWAP2 JUMPDEST POP POP POP POP POP DUP2 JUMP JUMPDEST PUSH1 0x0 SLOAD DUP2 JUMP JUMPDEST PUSH1 0x2 PUSH1 0x0 SWAP1 SLOAD SWAP1 PUSH2 0x100 EXP SWAP1 DIV PUSH1 0xFF AND DUP2 JUMP JUMPDEST PUSH1 0x0 DUP2 SWAP1 POP SWAP2 SWAP1 POP JUMP JUMPDEST PUSH2 0x312 DUP2 PUSH2 0x2FF JUMP JUMPDEST DUP3 MSTORE POP POP JUMP JUMPDEST PUSH1 0x0 PUSH1 0x20 DUP3 ADD SWAP1 POP PUSH2 0x32D PUSH1 0x0 DUP4 ADD DUP5 PUSH2 0x309 JUMP JUMPDEST SWAP3 SWAP2 POP POP JUMP JUMPDEST PUSH1 0x0 DUP2 SWAP1 POP SWAP2 SWAP1 POP JUMP JUMPDEST PUSH2 0x346 DUP2 PUSH2 0x333 JUMP JUMPDEST DUP3 MSTORE POP POP JUMP JUMPDEST PUSH1 0x0 DUP2 MLOAD SWAP1 POP SWAP2 SWAP1 POP JUMP JUMPDEST PUSH1 0x0 DUP3 DUP3 MSTORE PUSH1 0x20 DUP3 ADD SWAP1 POP SWAP3 SWAP2 POP POP JUMP JUMPDEST PUSH1 0x0 JUMPDEST DUP4 DUP2 LT ISZERO PUSH2 0x386 JUMPI DUP1 DUP3 ADD MLOAD DUP2 DUP5 ADD MSTORE PUSH1 0x20 DUP2 ADD SWAP1 POP PUSH2 0x36B JUMP JUMPDEST PUSH1 0x0 DUP5 DUP5 ADD MSTORE POP POP POP POP JUMP JUMPDEST PUSH1 0x0 PUSH1 0x1F NOT PUSH1 0x1F DUP4 ADD AND SWAP1 POP SWAP2 SWAP1 POP JUMP JUMPDEST PUSH1 0x0 PUSH2 0x3AE DUP3 PUSH2 0x34C JUMP JUMPDEST PUSH2 0x3B8 DUP2 DUP6 PUSH2 0x357 JUMP JUMPDEST SWAP4 POP PUSH2 0x3C8 DUP2 DUP6 PUSH1 0x20 DUP7 ADD PUSH2 0x368 JUMP JUMPDEST PUSH2 0x3D1 DUP2 PUSH2 0x392 JUMP JUMPDEST DUP5 ADD SWAP2 POP POP SWAP3 SWAP2 POP POP JUMP JUMPDEST PUSH1 0x0 PUSH1 0x40 DUP3 ADD SWAP1 POP PUSH2 0x3F1 PUSH1 0x0 DUP4 ADD DUP6 PUSH2 0x33D JUMP JUMPDEST DUP2 DUP2 SUB PUSH1 0x20 DUP4 ADD MSTORE PUSH2 0x403 DUP2 DUP5 PUSH2 0x3A3 JUMP JUMPDEST SWAP1 POP SWAP4 SWAP3 POP POP POP JUMP JUMPDEST PUSH1 0x0 PUSH20 0xFFFFFFFFFFFFFFFFFFFFFFFFFFFFFFFFFFFFFFFF DUP3 AND SWAP1 POP SWAP2 SWAP1 POP JUMP JUMPDEST PUSH1 0x0 PUSH2 0x437 DUP3 PUSH2 0x40C JUMP JUMPDEST SWAP1 POP SWAP2 SWAP1 POP JUMP JUMPDEST PUSH2 0x447 DUP2 PUSH2 0x42C JUMP JUMPDEST DUP3 MSTORE POP POP JUMP JUMPDEST PUSH1 0x0 PUSH1 0x20 DUP3 ADD SWAP1 POP PUSH2 0x462 PUSH1 0x0 DUP4 ADD DUP5 PUSH2 0x43E JUMP JUMPDEST SWAP3 SWAP2 POP POP JUMP JUMPDEST PUSH1 0x0 DUP2 SWAP1 POP SWAP2 SWAP1 POP JUMP JUMPDEST PUSH2 0x47B DUP2 PUSH2 0x468 JUMP JUMPDEST DUP3 MSTORE POP POP JUMP JUMPDEST PUSH1 0x0 PUSH1 0x20 DUP3 ADD SWAP1 POP PUSH2 0x496 PUSH1 0x0 DUP4 ADD DUP5 PUSH2 0x472 JUMP JUMPDEST SWAP3 SWAP2 POP POP JUMP JUMPDEST PUSH1 0x0 PUSH1 0x20 DUP3 ADD SWAP1 POP DUP2 DUP2 SUB PUSH1 0x0 DUP4 ADD MSTORE PUSH2 0x4B6 DUP2 DUP5 PUSH2 0x3A3 JUMP JUMPDEST SWAP1 POP SWAP3 SWAP2 POP POP JUMP JUMPDEST PUSH1 0x0 PUSH1 0xFF DUP3 AND SWAP1 POP SWAP2 SWAP1 POP JUMP JUMPDEST PUSH2 0x4D4 DUP2 PUSH2 0x4BE JUMP JUMPDEST DUP3 MSTORE POP POP JUMP JUMPDEST PUSH1 0x0 PUSH1 0x20 DUP3 ADD SWAP1 POP PUSH2 0x4EF PUSH1 0x0 DUP4 ADD DUP5 PUSH2 0x4CB JUMP JUMPDEST SWAP3 SWAP2 POP POP JUMP JUMPDEST PUSH32 0x4E487B7100000000000000000000000000000000000000000000000000000000 PUSH1 0x0 MSTORE PUSH1 0x22 PUSH1 0x4 MSTORE PUSH1 0x24 PUSH1 0x0 REVERT JUMPDEST PUSH1 0x0 PUSH1 0x2 DUP3 DIV SWAP1 POP PUSH1 0x1 DUP3 AND DUP1 PUSH2 0x53C JUMPI PUSH1 0x7F DUP3 AND SWAP2 POP JUMPDEST PUSH1 0x20 DUP3 LT DUP2 SUB PUSH2 0x54F JUMPI PUSH2 0x54E PUSH2 0x4F5 JUMP JUMPDEST JUMPDEST POP SWAP2 SWAP1 POP JUMP INVALID LOG2 PUSH5 0x6970667358 0x22 SLT KECCAK256 0xB2 0x2A 0xC4 DUP8 0xB3 SWAP16 KECCAK256 0xEA 0xCC COINBASE PUSH29 0xF941773D66EEC028A84F36589E1759580D9646012A64736F6C63430008 GT STOP CALLER "
				},
				"gasEstimates": {
					"creation": {
						"codeDepositCost": "283800",
						"executionCost": "infinite",
						"totalCost": "infinite"
					},
					"external": {
						"getValue()": "373",
						"myAddress()": "2631",
						"myByte32()": "2429",
						"myString()": "infinite",
						"myUnit()": "2473",
						"myUnit256()": "2430",
						"myUnit8()": "2537",
						"mystruct()": "infinite"
					}
				},
				"methodIdentifiers": {
					"getValue()": "20965255",
					"myAddress()": "26b85ee1",
					"myByte32()": "3c47361f",
					"myString()": "492bfa18",
					"myUnit()": "6a345bb4",
					"myUnit256()": "03bdf919",
					"myUnit8()": "a9810991",
					"mystruct()": "21cac573"
				}
			},
			"storageLayout": {
				"storage": [
					{
						"astId": 4,
						"contract": "Variables.sol:MyContract",
						"label": "myUnit",
						"offset": 0,
						"slot": "0",
						"type": "t_uint256"
					},
					{
						"astId": 7,
						"contract": "Variables.sol:MyContract",
						"label": "myUnit256",
						"offset": 0,
						"slot": "1",
						"type": "t_uint256"
					},
					{
						"astId": 10,
						"contract": "Variables.sol:MyContract",
						"label": "myUnit8",
						"offset": 0,
						"slot": "2",
						"type": "t_uint8"
					},
					{
						"astId": 13,
						"contract": "Variables.sol:MyContract",
						"label": "myAddress",
						"offset": 1,
						"slot": "2",
						"type": "t_address"
					},
					{
						"astId": 16,
						"contract": "Variables.sol:MyContract",
						"label": "myInt",
						"offset": 0,
						"slot": "3",
						"type": "t_int256"
					},
					{
						"astId": 19,
						"contract": "Variables.sol:MyContract",
						"label": "myByte32",
						"offset": 0,
						"slot": "4",
						"type": "t_bytes32"
					},
					{
						"astId": 22,
						"contract": "Variables.sol:MyContract",
						"label": "myString",
						"offset": 0,
						"slot": "5",
						"type": "t_string_storage"
					},
					{
						"astId": 34,
						"contract": "Variables.sol:MyContract",
						"label": "mystruct",
						"offset": 0,
						"slot": "6",
						"type": "t_struct(Mystruct)27_storage"
					}
				],
				"types": {
					"t_address": {
						"encoding": "inplace",
						"label": "address",
						"numberOfBytes": "20"
					},
					"t_bytes32": {
						"encoding": "inplace",
						"label": "bytes32",
						"numberOfBytes": "32"
					},
					"t_int256": {
						"encoding": "inplace",
						"label": "int256",
						"numberOfBytes": "32"
					},
					"t_string_storage": {
						"encoding": "bytes",
						"label": "string",
						"numberOfBytes": "32"
					},
					"t_struct(Mystruct)27_storage": {
						"encoding": "inplace",
						"label": "struct MyContract.Mystruct",
						"members": [
							{
								"astId": 24,
								"contract": "Variables.sol:MyContract",
								"label": "a",
								"offset": 0,
								"slot": "0",
								"type": "t_int256"
							},
							{
								"astId": 26,
								"contract": "Variables.sol:MyContract",
								"label": "s",
								"offset": 0,
								"slot": "1",
								"type": "t_string_storage"
							}
						],
						"numberOfBytes": "64"
					},
					"t_uint256": {
						"encoding": "inplace",
						"label": "uint256",
						"numberOfBytes": "32"
					},
					"t_uint8": {
						"encoding": "inplace",
						"label": "uint8",
						"numberOfBytes": "1"
					}
				}
			},
			"userdoc": {
				"kind": "user",
				"methods": {},
				"version": 1
			}
		}
	}
}